:020000041000EA
:1000000000B5324B212058609868022188439860DF
:10001000D860186158612E4B002199600221596106
:100020000121F02299502B49196001219960352056
:1000300000F044F80222904214D00621196600F024
:1000400034F8196E01211966002018661A6600F04E
:100050002CF8196E196E196E052000F02FF8012189
:100060000842F9D1002199601B49196000215960AB
:100070001A491B48016001219960EB211966A021F2
:10008000196600F012F800219960164914480160C1
:100090000121996001BC002800D000471248134993
:1000A000086003C880F30888084703B5996A0420EC
:1000B0000142FBD001200142F8D103BD02B5186610
:1000C0001866FFF7F2FF186E186E02BD00000240BE
:1000D000000000180000070000035F00212200005C
:1000E000F4000018222000A00001001008ED00E03C
:1000F00000000000000000000000000074B24E7A12
:1001000000200420F7010010C3010010C5010010F9
:10011000C1010010C1010010C1010010C101001097
:10012000C1010010C1010010C1010010C701001081
:10013000C1010010C1010010C9010010CB01001065
:10014000CD010010CD010010CD010010CD01001037
:10015000CD010010CD010010CD010010CD01001027
:10016000CD010010CD010010CD010010CD01001017
:10017000CD010010CD010010CD010010CD01001007
:10018000CD010010CD010010CD010010CD010010F7
:10019000CD010010CD010010CD010010CD010010E7
:1001A000CD010010CD010010CD010010CD010010D7
:1001B000CD010010CD010010CD010010CD010010C7
:1001C00000BE00BE00BE00BE00BE00BE00F04BF888
:1001D000103800BEF2EB887168DB001088DB00107D
:1001E0003402001090A31AE700202149086006C8D5
:1001F00081F3088810471F48006800282FD10DA4FC
:100200000ECC002902D000F012F8F9E71A491B4A77
:10021000002000E001C19142FCD1194988471949E9
:1002200088471949884700BEFDE701C901C29A42C3
:10023000FBD3704788DB0010C0000020200800209E
:10024000E8E200100000042000000420E8E20010B2
:1002500000100420001004200000000070470B482C
:1002600005F03EF90047EFF30580C0B2704700008B
:1002700008ED00E0000000D02008002098150020C4
:10028000812A001011050010BF2B001057560000E6
:1002900005005250DE65F468E8E200100600525096
:1002A0005422A29D2CD3001006005250861C03023B
:1002B00038D3001006005250ABB3605348D300103F
:1002C000F8B5C04606480749091A8B10C90FC91866
:1002D00010B5491003D0044B002B00D0984710BD37
:1002E000200800202008002000000000054B10B569
:1002F000002B03D00449054800E000BFFFF7E2FFF0
:1003000010BDC046000000003013002018C00010CF
:1003100080B582B000AF7860D0231B067A685A613E
:10032000C046BD4602B080BD80B582B000AF7860E7
:10033000D0231B067A689A61C046BD4602B080BDD4
:1003400080B584B000AF78600A00FB1C1A700122EF
:100350007B689A401300FB60FB1C1B78002B04D0C9
:10036000FB681800FFF7D4FF03E0FB681800FFF7F5
:10037000DBFFC046BD4604B080BD80B582B000AF93
:100380007860D0231B067A685A62C046BD4602B028
:1003900080BD80B582B000AF7860D0231B067A683C
:1003A0009A62C046BD4602B080BD80B584B000AF41
:1003B00078600A00FB1C1A7001227B689A401300C7
:1003C000FB60FB1C1B78002B04D0FB681800FFF7B8
:1003D000D4FF03E0FB681800FFF7DBFFC046BD4613
:1003E00004B080BD80B500AF00211120FFF7A8FF49
:1003F000C046BD4680BD80B500AF01211120FFF78A
:100400009FFFC046BD4680BD80B586B000AF0200EC
:10041000FB1D1A70BB1D0A1C1A7000237B6110E0C3
:100420007B695B000C203A18F91D0978D1547B696F
:100430005B0001333A18B91D0978D1547B69013347
:100440007B617B69032BEBDDFFF7CCFF0C23FB18F3
:100450000548082219000BF0CFFDFFF7CCFFC0467E
:10046000BD4606B080BDC04600C0034080B500AFA9
:1004700000210F20FFF7C8FF01210C20FFF7C4FF68
:1004800007210B20FFF7C0FF00210920FFF7BCFF69
:1004900008210A20FFF7B8FFC046BD4680BD000016
:1004A00080B586B000AF786000237B6126E0FFF75F
:1004B00099FF03233B6119E07B69DBB20133DAB2B8
:1004C0000C217B181A703B69DA007B69D3181A007B
:1004D0007B689B181A787B185A707B180B4802228D
:1004E00019000BF089FD3B69013B3B613B69002B27
:1004F000E2DAFFF780FF7B6901337B617B69072BC1
:10050000D5DDC046C046BD4606B080BD00C0034034
:1005100080B58CB000AF06F02AFBFA235B00180010
:1005200001F0BAFA002006F029FB0300BB62BB6AA7
:10053000AA2BF7D1552006F00CFAC0461E4A1F4BD5
:10054000110018000BF03AFC0121122000F038F8DD
:100550000121132000F034F8112000F063F801218C
:100560001120FFF722FF01211120FFF7E9FEFFF71D
:100570007DFF3B1D20220021180005F095FF002380
:10058000FB6210E0FA239B00180006F0F7FA030064
:100590007B627B6A002B06DBFB6A5A1CFA627A6A72
:1005A000D1B23A1DD154FB6A1F2BEBDD3B1D180065
:1005B000FFF776FFE3E7C0468096980000C003404F
:1005C00080B588B000AF78600A00FB1C1A707B68A9
:1005D0009B00124A94466344FB614023BB61C023E5
:1005E0007B61FB691A68BB6953407A691340FA69F9
:1005F0003A61FB603B69802252011343FA681A603A
:10060000C046C0460649FB1C1A787B68DB00CB1845
:1006100004331A60C046BD4608B080BD04C0014026
:100620000040014080B582B000AF7860D0231B0647
:1006300001217A6891400A009A62D0231B060121A9
:100640007A6891400A009A617B6805211800FFF7DB
:10065000B7FFC046BD4602B080BD000080B586B081
:1006600000AF0B237B607B680F4A944663449B007A
:100670007B61EFF310833B6172B63B69FB607B6982
:10068000BB60C046BB681B685A425341DBB2002BBB
:10069000F8D1BFF35F8FC046C046C046FB68180064
:1006A000BD4606B080BDC0464000003480B588B06D
:1006B00000AF78600B23FB60FB680E4A94466344EE
:1006C0009B00FB617B68BB61FB697B61BFF35F8F54
:1006D000C046C0467B6900221A60C046BB693B61C8
:1006E0003B6983F31088C046C046C046BD4608B08B
:1006F00080BDC0464000003480B582B000AF786055
:1007000039603B68DB087A68D3181B7819003B68AE
:100710000722134001229A4013000B405A1E9341B6
:10072000DBB21800BD4602B080BD80B586B000AF18
:10073000F860B9607A60FFF791FF03007B61BA68E7
:10074000FB6811001800FFF7D7FF031E05D0BA6839
:100750007B681100180002F061FABB68DB08FA68D8
:10076000D3181978BB680722134001229A4013005E
:10077000DAB2BB68DB08F868C3180A43D2B21A7051
:100780007B691800FFF792FFC046BD4606B080BDEA
:1007900080B588B000AFF8607A603B600B23FB182F
:1007A0000A1C1A70FFF75AFF03007B6101235B42AA
:1007B000FB617B68BB6125E0BA69FB68110018002A
:1007C000FFF79AFF03001A0001235340DBB2002B0E
:1007D00015D0BB69DB08FA68D3181978BB69072202
:1007E000134001229A401300DAB2BB69DB08F868B3
:1007F000C3180A43D2B21A70BB69FB6106E0BB6939
:100800000133BB61BA693B689A42D5D97B6918004C
:10081000FFF74CFFFB69002B08DA0B23FB181B7852
:10082000002B03D0BB6A180002F0F8F9FB6918002E
:10083000BD4608B080BD000080B500AF044B1B680A
:10084000022213405A1E9341DBB21800BD4680BD00
:1008500000C0064080B584B000AF0023FB6012E00A
:10086000FB687B607B680C4A944663449B00BB60DA
:10087000BFF35F8FC046C046BB6800221A60C04607
:10088000FB680133FB60FB681F2BE9D9C046C046FB
:10089000BD4604B080BDC0464000003480B582B083
:1008A00000AF094B1B785A1CD1B2074A11707B600C
:1008B000054B1B78172B02D9034B10221A707B684B
:1008C0001800BD4602B080BD2807002080B584B066
:1008D00002AF0200FB1D1A70FB1D19780548064B7C
:1008E00000931F231822FFF753FF03001800BD4693
:1008F00002B080BD8C0E0020B8C0001080B582B060
:1009000000AF386079603A687B6810001900BD4616
:1009100002B080BD80B584B000AFF8603A607B6003
:100920003A687B68002B05DA074B084A08483F21E4
:1009300002F04EF9F9683A687B680A604B60C0467D
:10094000BD4604B080BDC046D4C00010B8C400107D
:10095000F0C00010B0B586B000AF386079603A687A
:100960007B6810001900FFF7C9FF02000B003A6115
:100970007B617B691C0000231D002300FB600D4B85
:100980005B6ABB60BA68FB689A420AD3094B9A6AF1
:100990003B699A4203D2BA68FB689A4201D00123AC
:1009A00000E000231A1C01231340DBB21800BD46EF
:1009B00006B0B0BD0040054080B584B000AF78609F
:1009C00001F00EF902000B00082179180800FFF76A
:1009D000A1FF7968BA68FB680A604B607868BD4619
:1009E00004B080BD80B58AB000AFF8603A607B602B
:1009F0003A687B6810001900FFF780FF02000B00C7
:100A0000BA61FB61B869F9693A6B7B6B12184B41AB
:100A10003A627B62FA697B6A9A4207D8FA697B6A12
:100A20009A4208D1BA693B6A9A4204D901225242D9
:100A3000D3173A627B623A6A7B6A10217918080000
:100A4000FFF768FFF9683A697B690A604B60F868EC
:100A5000BD460AB080BD90B589B002AFF8603A607B
:100A60007B601023FB181800FFF7A6FFFC683869AD
:100A700079693A687B680092019302000B002000BC
:100A8000FFF7B0FFF868BD4607B090BDB0B584B0C1
:100A900000AFB860F9603A607B603A687B6810002C
:100AA0001900FFF72BFF04000D00BA68FB68100067
:100AB0001900FFF723FF02000B00A41A9D4122003A
:100AC0002B0010001900BD4604B0B0BD80B588B041
:100AD00004AFB860F9607A603B6000F09DFABA68D4
:100AE000FB681821791809780291396801917968B1
:100AF000009100F079FD03001800BD4604B080BDF0
:100B000080B582B000AF786000F086FA02007B68A2
:100B10001900100000F032FE03001800BD4602B0BC
:100B200080BD000080B582B000AF78600A00FB1C79
:100B30001A70FB1C1B78002B05D07B681B7BFA1CF2
:100B400012789A4205D9094B094A0A48692102F0EC
:100B50003FF87B681968FB1C1A7813005B009B1830
:100B6000033BCB181800BD4602B080BD58C1001031
:100B700044C4001074C1001080B584B000AF786028
:100B800008001100FB1C021C1A70BB1C0A1C1A7006
:100B9000FB1C1A787B6811001800FFF7C3FF0300E5
:100BA000FB60FB1C1B78002B05D11F4B1F4A204804
:100BB000702102F00DF8BB1C1B78002B05D11D4BDA
:100BC0001A4A1B48712102F003F8FA1CBB1C127868
:100BD0001B789A4205D1184B144A1548722101F02E
:100BE000F7FFBB1C1A787B6811001800FFF79AFF0B
:100BF0000300BB60BB68FA1C12789A70FB681B7814
:100C0000002B04D1FB68BA1C12781A7007E0FB684D
:100C10001A78BB685A70FB68BA1C12781A70C04602
:100C2000BD4604B080BDC046E0C1001030C4001015
:100C300074C10010ECC10010F8C1001090B583B071
:100C400000AF786008001100FB1C021C1A70BB1C6E
:100C50000A1C1A70FB1C1B78002B02D1BB1C1B78D2
:100C600027E0BB1C1B78002B02D1FB1C1B7820E06B
:100C70007B685C687B689868BB1C1A78FB1C1B78D7
:100C80001900A047031E0AD0BB1C1A78FB1C197858
:100C90007B681800FFF770FFFB1C1B7809E0FB1C4A
:100CA0001A78BB1C19787B681800FFF765FFBB1C1E
:100CB0001B781800BD4603B090BD80B584B000AF6E
:100CC00078607B689B7B002B01D1002326E00F21FD
:100CD0007B187A68927B1A707B181A787B681100EF
:100CE0001800FFF71FFF0300BB60BB685A787B68E2
:100CF0009A737B689B7B002B02D17B680022DA739E
:100D0000BB6800229A70BB689A78BB685A70BB684F
:100D10005A78BB681A700F23FB181B781800BD4661
:100D200004B080BD80B584B000AF78600A00FB1CC1
:100D30001A70FB1C1B78002B05D1164B164A17485E
:100D4000A62101F045FFFB1C1A787B6811001800F2
:100D5000FFF7E8FE0300FB60FB6800229A70FB6867
:100D60009A78FB685A70FB685A78FB681A707B683F
:100D7000597BFB1C1A787B681800FFF75FFF0300A4
:100D80001A007B685A737B685B7B1800BD4604B011
:100D900080BDC04610C200108CC4001074C1001089
:100DA00080B582B000AF78607B685B7B1800BD4681
:100DB00002B080BD80B582B000AF78600A00FB1C35
:100DC0001A707B685B7BFA1C12789A420AD0FB1C73
:100DD0001A787B6811001800FFF7A4FE03009B78C7
:100DE000002B01D0012300E000231A1C0123134033
:100DF000DBB21800BD4602B080BD000080B582B0F5
:100E000000AF78600A00FB1C1A70FB1C1B78002BDB
:100E100008D0FB1C1A787B6811001800FFF7CAFF86
:100E2000031E05D00E4B0F4A0F48F72101F0D0FEEC
:100E30007B68DB7B002B0AD07B68DA7B7B68110048
:100E40001800FFF76FFE0200FB1C1B7853707B68D5
:100E5000FA1C1278DA73C046BD4602B080BDC046A7
:100E600014C20010D0C4001074C1001080B500AFCF
:100E7000034B5B685A1E9341DBB21800BD4680BD30
:100E80003C07002080B582B000AF78600A00FB1CF0
:100E90001A70FB1C1B78002B06D07B681B681B7B21
:100EA000FA1C12789A4205D9094B0A4A0A483B2192
:100EB00001F08EFE7B689A68FB1C1B7807498C4604
:100EC00063441B01D3181800BD4602B080BDC04664
:100ED00038C2001050C400105CC20010FFFFFF0FAA
:100EE00080B582B000AF78600A00FB1C1A70FB1C52
:100EF0001B78002B06D07B681B681B7BFA1C1278C2
:100F00009A4205D9074B084A0848402101F060FE83
:100F10007B68DA68FB1C1B78013BD3181800BD46C0
:100F200002B080BD38C20010E0C400105CC20010E6
:100F3000B0B584B000AF786008001100FB1C021C43
:100F40001A70BB1C0A1C1A707B68FB60FB1C1A78A9
:100F5000FB6811001800FFF795FF03001A685B6833
:100F600010001900FFF7CAFC04000D00BB1C1A7822
:100F7000FB6811001800FFF785FF03001A685B6823
:100F800010001900FFF7BAFC02000B000121AB4270
:100F900004D801D1A24201D80023191CCBB21800F9
:100FA000BD4604B0B0BD80B582B000AF0200FB1DED
:100FB0001A70BB1D0A1C1A70FB1D1B781A02BB1D80
:100FC0001B7813431800BD4602B080BD80B500AF4A
:100FD000FFF74CFF03001A0001235340DBB2002B44
:100FE0000BD00A4B1868094B094A102101F0F9FA95
:100FF000064B0321180000F0C5FA064B0A21180021
:1010000001F0FCF8C046BD4680BDC0463C0700204C
:10101000310F00106415002080B500AFFFF726FFE8
:10102000031E05D1044B054A05485C2101F0D0FDA3
:10103000044B1800BD4680BDB8C200105CC400104F
:101040005CC200103C070020F0B589B000AFF8602A
:101050003A607B60382108200B18DB191B78002BC5
:101060001ED0FB681A680B18DB191B7819001000DA
:10107000FFF7A0FE03001A0001235340DBB2002B50
:1010800005D1384B384A3948652101F0A1FD1F23AD
:10109000FB18382208215218D21912781A7008E069
:1010A000FB681B681F22BC181800FFF706FE030030
:1010B00023701F257B191B78002B4BD07B191A78C6
:1010C000FB6811001800FFF7DDFE0300BB61B96982
:1010D0003A687B680A604B60BB69BA6B9A60BB690F
:1010E000FA6BDA60FB681A687B191B78190010002C
:1010F000FFF718FE03001A007B191B78934229D1D1
:10110000FB681B7D19001726BC193A687B6808002C
:1011100000F036FF03002370BB191B78002B11D0A1
:101120003C2308229B18DB191B7801225340DBB2B9
:10113000002B07D0FB681A687B191B781900100078
:1011400001F0BAFBBB6C002B04D0BB6C1722BA18A1
:1011500012781A701F23FB181B781800BD4609B0BF
:10116000F0BDC046DCC2001074C400105CC20010A8
:10117000F0B5AFB006AF7860D94B7A689200D3581B
:101180008C22BA1813601023FB181800FFF714FC08
:1011900000239822BA18136000220023BA60FB6073
:1011A00000239422BA1813609F23FB1800221A70A0
:1011B0008C23FB181B685B68FB66EFF31083BB6630
:1011C00072B6BB6E7B66FB6E3B66C0463B6E1B68B1
:1011D0005A425341DBB2002BF8D1BFF35F8FC046B8
:1011E000C046C0467B6E8822BA1813608C26BB1995
:1011F0001B681B6887257C191800FFF7D1FD0300C9
:1012000023707B191B78002B00D17DE07B191A78A5
:10121000BB191B6811001800FFF734FE0300802281
:10122000B9180B60BB181B681A685B683869796964
:10123000FFF72CFC02000B00002B56DC01D1002A2A
:1012400053D18C23FB181B681B687F257C19002158
:10125000180001F00FFB030023707A198723FB1895
:1012600012781B789A4205D09E4B9F4A9F488C214A
:1012700001F0AEFC80217B181B681A685B68BA60BD
:10128000FB600A00BB181B689B68982178180360F4
:10129000BB181B68DB689422BA1813607B181B68A4
:1012A000002B05D1924B904A9048902101F090FC80
:1012B0008723FB181A788C243B191B68110018002F
:1012C000FFF70EFE020093217B1812781A707F231D
:1012D000FB181A787B181B7811001800FFF763FEC3
:1012E00002003B191B681A610EE08023FB181B6883
:1012F0001A685B687968080000F042FE031E03D09C
:101300009F23FB1801221A708C243B191B685B6811
:10131000FB658823FB181B68BB65FB6D7B65BFF312
:101320005F8FC046C0467B6D00221A60C046BB6D11
:101330003B653B6D83F31088C046C04698257B19FA
:101340001B68002B00D111E18723FB181A78932327
:10135000FB181B7811001800FFF725FE9423FB18DB
:101360001A687B191B681100984702000B003A6746
:101370007B673B191B685B68FB64EFF31083BB64FE
:1013800072B6BB6C7B64FB6C3B64C0463B6C1B68F9
:101390005A425341DBB2002BF8D1BFF35F8FC046F6
:1013A000C046C0467B6C8822BA1813607B6F002B46
:1013B00046DA8C22BB181B681B69002B40D0BB1877
:1013C0001B681C698723FB181A789323FB181B786A
:1013D00011001800FFF7E7FD03009C4205D0454BC4
:1013E000414A42489F2101F0F3FB3A6F7B6F002096
:1013F0000021801A994102000B00100019001823E7
:10140000FC18BA68FB68009001912000FFF7EAFA27
:10141000BA69FB698C2179180868002104910121BF
:101420000391872179180978029194217918096824
:1014300001919821791809680091FFF705FE73E082
:101440007B6F002B05DC7B6F002B55D13B6F002B96
:1014500052D08C22BB181B681B69002B4CD0BB18C8
:101460001B681C698723FB181A789323FB181B78C9
:1014700011001800FFF797FD03009C4205D01D4B9B
:10148000194A1A48A22101F0A3FB2023FB181800D7
:10149000FFF792FA3A6F7B6F28217C18386A796AD5
:1014A0000092019302000B002000FFF79BFABA6A3A
:1014B000FB6A8C21791808680021049101210391AD
:1014C0008721791809780291942179180968019186
:1014D0009821791809680091FFF7B6FD24E0C0460D
:1014E0004813002004C300109CC400105CC200100C
:1014F0001CC3001028C300108C243B191B681A68F9
:1015000087257B191B7819001000FFF777FC7B19E2
:101510001A783B191B6811001800FFF7E1FC030063
:101520001A780132D2B21A708C217B181B68002203
:101530001A617B181B685B68FB638823FB181B68B8
:10154000BB63FB6B7B63BFF35F8FC046C0467B6BA7
:1015500000221A60C046BB6B3B633B6B83F3108871
:10156000C046C0469F23FB1801221A709F23FB1818
:101570001B78002B00D006E6C046C046BD4629B009
:10158000F0BDC04680B584B000AF786039603B687C
:10159000180000F00FFB3B68180000F0D3FD0F4A65
:1015A0003B681100180000F051FCFFF777F90300C9
:1015B000FB60FB680A4A944663449B001A007B6800
:1015C0005A603B68DAB27B681A75064B3A6892003B
:1015D0007968D150C046BD4604B080BD711100107D
:1015E0004000003448130020B0B59EB006AF7861CB
:1015F000BA60FB601F23FB1800221A705B23FB18E4
:1016000000221A707B695B687B64EFF310833B6494
:1016100072B63B6CFB637B6CBB63C046BB6B1B68E9
:101620005A425341DBB2002BF8D1BFF35F8FC04663
:10163000C046C046FB6B7B6553257C19BA68FB68C6
:1016400078691F21791804910021039100210291EA
:10165000796F0191396F0091FFF7F6FC0300237059
:101660007B191B78002B0BD07B191A787B69110032
:101670001800FFF735FC02005B23FB1812781A7084
:101680007B695B687B637B6D3B637B6BFB62BFF35A
:101690005F8FC046C046FB6A00221A60C0463B6BA3
:1016A000BB62BB6A83F31088C046C0465323FB1855
:1016B0001B78002B02D101235B425AE01F23FB1849
:1016C0001B78002B0BD15323FB181A785B23FB18D4
:1016D0001B7811001800FFF766FC030000E00023F0
:1016E000FB651F23FB181B78002B41D07823FB18C8
:1016F0001B78002B3CD0796FFA6D3B6F1000984738
:1017000002000B00BA64FB64BB6CFA6C134302D199
:101710000023FB652CE0FB6C002B13DABA6CFB6C2E
:1017200000200021801A994102000B0010001900CE
:101730000823FC18BA68FB68009001912000FFF7AD
:1017400051F95BE72023FB181800FFF735F9BA6C55
:10175000FB6C3C00386A796A0092019302000B002E
:101760002000FFF73FF93A687B68BA60FB6045E705
:10177000FB6D1800BD4618B0B0BD0000F0B58FB0CD
:1017800000AF786039603723FB1800221A707B683D
:101790005B68BB62EFF310837B6272B67B6A3B626D
:1017A000BB6AFB61C046FB691B685A425341DBB20E
:1017B000002BF8D1BFF35F8FC046C046C0463B6ADE
:1017C0003B632F217B183A681A707B681A687B1874
:1017D0001B7819001000FFF7EDFA031E35D07B6867
:1017E0001B693A689A4206D12A4B2B4A8521490047
:1017F0002A4801F0EDF93B681A0A2E243B191A70A9
:101800002F257B191A787B6811001800FFF768FBF9
:1018100003001B783A1912789A421ED17B681A6825
:101820003726BC197B191B781900100001F044F809
:1018300003002370BB191B78002B0ED1184B164ADE
:101840001221FF31154801F0C3F97B681B693A6822
:101850009A4202D17B6800221A617B685B68BB6197
:101860003B6B7B61BB693B61BFF35F8FC046C0468A
:101870003B6900221A60C0467B69FB60FB6883F30A
:101880001088C046C0463723FB181B781800BD4699
:101890000FB0F0BD94C30010F4C400105CC200107F
:1018A000B8C3001080B58CB000AF786039601C4BB5
:1018B0001B68BB61EFF310837B6172B67B693B6190
:1018C000BB69FB60C046FB681B685A425341DBB2F0
:1018D000002BF8D1BFF35F8FC046C046C0463B69BE
:1018E000FB620F4B1B68BB62FB6A7B62BB6A3B629D
:1018F000BFF35F8FC046C0463B6A00221A60C046F5
:101900007B6AFB61FB6983F31088C046C04640BF19
:10191000C0460022002310001900BD460CB080BD57
:101920006415002080B596B002AF38607960FEF78C
:101930009AFC031E03D04A4B180001F06FF93A6875
:101940007B6810001900FEF7D9FF02000B003A6413
:101950007B643A6C7B6C06204042C11712184B41E5
:10196000BA64FB64FA6C7B6C9A4207D8FA6C7B6CA5
:101970009A4207D1BA6C3B6C9A4203D900220023E9
:10198000BA64FB64BA6CFB6C082179180800FEF796
:10199000C1FF1023FB181800FFF70EF8BA68FB68A8
:1019A00038697969FFF772F802000B00002B02DC3E
:1019B0004BD1002A49D02B4AB868F968002300931C
:1019C0000023FFF783F8031E3FDB31E0264B1B6843
:1019D000BB62EFF310837B6272B67B6A3B62BB6AC9
:1019E000FB61C046FB691B685A425341DBB2002BC6
:1019F000F8D1BFF35F8FC046C046C0463B6AFB6369
:101A0000194B1B68BB63FB6B7B63BB6B3B63BFF317
:101A10005F8FC046C0463B6B00221A60C0467B6B9E
:101A2000FB62FB6A83F31088C046C04620BFC046F5
:101A3000BA68FB6810001900FEF78CFF03001A005B
:101A400001235340DBB2002BC0D13A687B68100001
:101A5000190000F02BF9C046BD4614B080BDC04649
:101A6000E0C30010A51800106415002080B584B0F4
:101A700000AF386079600823F9183A687B6808007D
:101A8000FEF7E9FFBA68FB6810001900FFF74AFF8C
:101A9000C046BD4604B080BDB0B582B000AF78602E
:101AA0007B681C0000231D00FA2292000023200006
:101AB000290004F00BFC02000B0010001900FFF7D6
:101AC000D5FFC046BD4602B0B0BD000080B586B0AF
:101AD00002AF38607960134A386879680023009350
:101AE0000023FEF7F3FF0300FB60FB68002B08DC1C
:101AF000C0463A687B6810001900FEF72BFF030010
:101B00000CE020BFC046FB681800FEF7F9FF3A68FA
:101B10007B6810001900FEF71DFF03001800BD468A
:101B200004B080BDA518001080B582B000AF386049
:101B300079603A687B6810001900BD4602B080BD2C
:101B400080B584B000AFF8603A607B603A687B682B
:101B5000002B05DA074B084A08483F2101F038F806
:101B6000F9683A687B680A604B60C046BD4604B0BD
:101B700080BDC0460CC500103CC6001028C5001032
:101B800080B582B000AF7860C046BD4602B080BD6F
:101B900080B582B000AF78607B681F221A40044B8A
:101BA000012191400A001A60C046BD4602B080BDC6
:101BB00080E200E080B582B000AF78607B681800FA
:101BC000FFF7DEFF044A7968044B1800FEF7ADFD0D
:101BD000C046BD4602B080BD90C5001094150020DF
:101BE000F0B587B000AF154E766A7E61134EB66AC7
:101BF0003E61124E766AFE607E69B446FE68B44568
:101C000002D0FE687E61F1E7C0467E693E60002634
:101C10007E603E683300002632003E6930000026B8
:101C200031001600064334000B431D0022002B0038
:101C300010001900BD4607B0F0BDC0460040054089
:101C400080B588B000AF38607960FFF7C9FF020047
:101C50000B003A617B61386979693A687B681218D0
:101C60004B41BA61FB617A69FB699A4207D87A698C
:101C7000FB699A4208D13A69BB699A4204D90122A8
:101C80005242D317BA61FB61BA69FB69082179181E
:101C90000800FFF755FFBA68FB681000190000F054
:101CA00005F8C046BD4608B080BD0000B0B588B09C
:101CB00000AF386079603A687B6810001900FFF760
:101CC00033FF02000B003A617B617B691C0000233B
:101CD0001D002300FB600F4B5B6AFB6103E00D4BB3
:101CE0005B6AFB61C046FA69FB689A42F7D303E07E
:101CF000084B5B6AFB61C046FA69FB689A4204D1F3
:101D0000044B9A6A3B699A42F2D3C046BD4608B07A
:101D1000B0BDC0460040054080B582B000AF7860DD
:101D20007B681800BD4602B080BD000080B58EB053
:101D300000AFEFF305833B633B6B3F221340103B47
:101D4000FB62FB6A1800FFF71BFF00237B630A237B
:101D50003B613B69384A944663449B00BB62BB6A63
:101D60003B62EFF31083FB6172B6FB69BB613B6AB8
:101D70007B61C0467B691B685A425341DBB2002B32
:101D8000F8D1BFF35F8FC046C046C046BB697B62D7
:101D90002A4B0121FA6A91400A005A63284B1B78AA
:101DA0001A00FB6ADA4013000122134024D0234BAF
:101DB0005A6A244BF96A8900CB589A4212D3224BB3
:101DC000FA6A9200D3587B630122FB6A9A4013009F
:101DD000DBB2DB43DBB21A4A12781340DAB2184B9B
:101DE0001A7009E0154A1549FB6A04339B009A589A
:101DF000FB6A04339B005A50BB6AFB607B6ABB6082
:101E0000FB687B60BFF35F8FC046C0467B680022E3
:101E10001A60C046BB683B603B6883F31088C046CD
:101E2000C0467B6B002B03D0FA6A7B6B100098478F
:101E3000C046BD460EB080BD4000003400400540A5
:101E400097150020701500207C0D002080B590B003
:101E500000AF786039607B681800FFF791FE7B68FF
:101E60001800FFF759FF0300FB630A233B623B6A3C
:101E70003E4A944663449B00BB63BB6B3B63EFF3FA
:101E80001083FB6272B6FB6ABB623B6B7B62C0462F
:101E90007B6A1B685A425341DBB2002BF8D1BFF377
:101EA0005F8FC046C046C046BB6A7B633B68002B61
:101EB00026D0FB6B180001F0ADF902002C4B9A42C2
:101EC00018D02B4AFB6B1100180001F0B7F9FB6B1F
:101ED0000121180001F028F901227B689A401300C3
:101EE000244AFA61BB61FB69802292011343BA69FB
:101EF0001A60C046204B7A6892003968D1501CE0C5
:101F00001D4B7A6892000021D15001227B689A40D3
:101F10001300DBB2DB43DBB2184A12781340DAB2AB
:101F2000164B1A70124AFB6B1100180001F096FA5A
:101F3000FB6B0021180001F0F7F8BB6B7B617B6B3A
:101F40003B617B69FB60BFF35F8FC046C046FB68A7
:101F500000221A60C0463B69BB60BB6883F31088EF
:101F6000C046C046C046BD4610B080BD40000034EB
:101F70002D1D0010384005407C0D002097150020D5
:101F8000B0B596B000AFF8603A607B60FFF728FE0E
:101F900002000B00BA64FB643A687B681000190009
:101FA000FFF7C2FD02000B003A647B647A6CFB6CA5
:101FB0009A420CD87A6CFB6C9A4203D13A6CBB6C97
:101FC0009A4204D85723FB1801221A70A4E0572321
:101FD000FB1800221A700A233B623B6A524A94465D
:101FE00063449B00FB63FB6B3B63EFF31083FB627B
:101FF00072B6FB6ABB623B6B7B62C0467B6A1B6846
:102000005A425341DBB2002BF8D1BFF35F8FC04679
:10201000C046C046BB6ABB633723FB18434A1278ED
:102020001A700122FB689A401300DAB23F4B1B780A
:102030001343DAB23D4B1A703D4B0121FA689140CF
:102040000A005A633A493A6CFB6804339B005A50C1
:102050007B6C1C0000231D002100364BFA689200A7
:10206000D150334B1B6A0121FA6891400A0013409A
:102070000DD12F4B1B6C0121FA6891400A001340CF
:1020800035D12D4B2D4A2E48C12100F0A1FDFFF77F
:10209000A7FD02000B00796C994228D8796C99420F
:1020A00002D1396C914222D85723FB1801221A70B1
:1020B0001E4B1B7837243A1912789A4217D01C4BC2
:1020C0000121FA6891400A001A62194B0121FA684D
:1020D00091400A005A63FB681800FFF71DFE0300D9
:1020E0001800FFF755FD114B3A1912781A70FB6B67
:1020F000FB61BB6BBB61FB697B61BFF35F8FC0465C
:10210000C0467B6900221A60C046BB693B613B69DF
:1021100083F31088C046C0465723FB181B7818006D
:10212000BD4616B0B0BDC046400000349715002033
:102130000040054070150020B4C5001054C60010C2
:10214000D8C5001080B58EB000AF78607B681800ED
:10215000FFF716FD0A23FB60FB68254A944663449B
:102160009B007B637B6BFB61EFF31083BB6172B6FB
:10217000BB697B61FB693B61C0463B691B685A4296
:102180005341DBB2002BF8D1BFF35F8FC046C0468E
:10219000C0467B693B63174B01217A6891400A0076
:1021A0001A6201227B689A401300DBB2DB43DBB288
:1021B000114A12781340DAB20F4B1A707B6BFB6234
:1021C0003B6BBB62FB6A7B62BFF35F8FC046C0465E
:1021D0007B6A00221A60C046BB6A3B623B6A83F39B
:1021E0001088C046C046C046BD460EB080BDC04641
:1021F00040000034004005409715002080B584B0B1
:1022000000AF786039603B68FB60FB68054A944624
:1022100063449B001A007B681A60C046BD4604B048
:1022200080BDC0464000003480B582B000AF386049
:1022300079603A687B6810001900BD4602B080BD25
:1022400080B584B000AFF8603A607B603A687B6824
:10225000002B05DA074B084A08483F2100F0B8FC7C
:10226000F9683A687B680A604B60C046BD4604B0B6
:1022700080BDC04670C60010A4C700108CC60010F8
:1022800080B584B000AF7860FFF7AAFC02000B00B5
:10229000082179180800FFF7D3FF7968BA68FB684E
:1022A0000A604B607868BD4604B080BDB0B58AB0A6
:1022B00000AFF8603A607B603A687B6810001900F4
:1022C000FFF7B2FF02000B00BA61FB61BB6B1C00A1
:1022D00000231D00FA22920000232000290003F0B1
:1022E000F5FF02000B0010001900BA69FB69121813
:1022F0004B413A627B62FA697B6A9A4207D8FA6973
:102300007B6A9A4208D1BA693B6A9A4204D901228F
:102310005242D3173A627B623A6A7B6A102179187B
:102320000800FFF78DFFF9683A697B690A604B6026
:10233000F868BD460AB0B0BD80B586B002AF78601F
:1023400039600823FB181800FFF79AFF7868BA680D
:10235000FB6839680091FFF7A9FF7868BD4604B0B3
:1023600080BD90B583B000AF78607C68FEF796FAC8
:10237000030019002000FFF741FF7B68FF221A715C
:10238000BFF35F8FC046C046C046BD4603B090BD98
:1023900090B583B000AF78607C68FEF77FFA0300E9
:1023A00019002000FFF72AFF7B68FF221A717B6863
:1023B00000225A71BFF35F8FC046C046C046BD467B
:1023C00003B090BD80B582B000AF78600120FEF709
:1023D0007DFA03001A007B681100180000F004F871
:1023E000C046BD4602B080BD80B584B000AF786005
:1023F00039603B68FB60FB68074A944663449B0076
:102400001A007B681A60BFF35F8FC046C046C046A3
:10241000BD4604B080BDC0464000003480B582B0E7
:1024200000AF78600A00FB1C1A70FB1C1B78002BA5
:1024300005D07B681B7BFA1C12789A4205D9094BA0
:10244000094A0A48692100F0C3FB7B681968FB1C34
:102450001A7813005B009B18033BCB181800BD468D
:1024600002B080BDE0C70010ACC90010FCC700106E
:1024700080B584B000AF786008001100FB1C021C1E
:102480001A70BB1C0A1C1A70FB1C1A787B6811009E
:102490001800FFF7C3FF0300FB60FB1C1B78002B39
:1024A00005D11F4B1F4A2048702100F091FBBB1C37
:1024B0001B78002B05D11D4B1A4A1B48712100F0D7
:1024C00087FBFA1CBB1C12781B789A4205D1184B6B
:1024D000144A1548722100F07BFBBB1C1A787B68FC
:1024E00011001800FFF79AFF0300BB60BB68FA1CDD
:1024F00012789A70FB681B78002B04D1FB68BA1C19
:1025000012781A7007E0FB681A78BB685A70FB688B
:10251000BA1C12781A70C046BD4604B080BDC046D1
:1025200068C8001098C90010FCC7001074C80010DB
:1025300080C8001090B583B000AF7860080011002B
:10254000FB1C021C1A70BB1C0A1C1A70FB1C1B789B
:10255000002B02D1BB1C1B7827E0BB1C1B78002B77
:1025600002D1FB1C1B7820E07B685C687B68986864
:10257000BB1C1A78FB1C1B781900A047031E0AD04D
:10258000BB1C1A78FB1C19787B681800FFF770FFDA
:10259000FB1C1B7809E0FB1C1A78BB1C19787B68B4
:1025A0001800FFF765FFBB1C1B781800BD4603B081
:1025B00090BD80B582B000AF78607B685B7B18000F
:1025C000BD4602B080BD80B582B000AF78607B6848
:1025D0000121180000F04EF903001800BD4602B0BA
:1025E00080BD80B584B000AFF860B9607A603B60B0
:1025F000BB68DAB2FB681A73FB687A685A60FB68DA
:102600003A689A60FB68180000F004F8C046BD46BE
:1026100004B080BD90B585B000AF78607B680022C3
:102620005A737B6801229A737B681A7B7B68DA7322
:102630000F23FB1801221A7013E00F243B191A789C
:102640007B6811001800FFF7E9FE020021007B18EB
:102650001B780133DBB253707B181A787B18013278
:102660001A707B681B7B0F22BA1812789A42E4D347
:102670007B681A7B7B6811001800FFF7CFFE030010
:1026800000225A70C046BD4605B090BDF0B585B079
:1026900000AF78600A00FB1C1A70FB1C1B78002B33
:1026A0000AD0FB1C1A787B6811001800FFF7B6FEF1
:1026B00003005B78002B02D1FB1C1B784AE00F263D
:1026C000BB19FA1C12781A70FB1C1A787B6811006F
:1026D0001800FFF7A3FE02000E257B1952781A702E
:1026E0007B191A787B6811001800FFF797FE02002B
:1026F0000D23FB1852781A707B191A787B68110029
:102700001800FFF78BFE040000236370BB191A78D2
:102710007B6811001800FFF781FE030062785A7091
:102720007B191A78BB1919787B681800FFF702FF2C
:1027300003001C000D23FB181A787B681100180099
:10274000FFF7A4FF03001A007B6821001800FFF7C1
:10275000F1FE03001800BD4605B0F0BD90B585B090
:1027600000AF786008001100FB1C021C1A70BB1C33
:102770000A1C1A70FB1C1B78002B05D1384B394AF8
:102780003948382100F024FAFB1C1A787B681100C4
:102790001800FFF743FE03005B78002B05D0334B96
:1027A000304A31483A2100F013FAFB1C1A787B6852
:1027B00011001800FFF732FE03009B78002B05D0B4
:1027C0002B4B284A28483B2100F002FAFB1C1A78C0
:1027D0007B6811001800FFF721FE03001A780F2311
:1027E000FC187B6811001800FFF750FF03002370EE
:1027F000BB1C1B78002B12D07B68DB7B002B0AD024
:102800007B68DA7B7B6811001800FFF707FE020087
:10281000FB1C1B7853707B68FA1C1278DA730F224A
:10282000BB181B78002B09D0BB181A787B681100E5
:102830001800FFF7F3FD030000229A70FB1C1A78C2
:102840007B6811001800FFF7E9FD030000225A70B1
:102850000F23FB181B781800BD4605B090BDC0467D
:1028600098C80010B8C90010A0C80010FCC800101B
:1028700024C90010B0B584B000AF78600A00FB1C1A
:102880001A700F257C197B681800FFF792FE030071
:102890002370FB1C1A782C003B1919787B681800F0
:1028A000FFF75CFF03001A007B685A733B191B7823
:1028B0001800BD4604B0B0BDB0B588B000AF7860B8
:1028C0000A00FB1C1A70FB1C1B78002B01D1002393
:1028D00090E07B685B7BFA1C12789A4205D17B689A
:1028E0001800FFF770FE012384E0FB1C1A787B6858
:1028F00011001800FFF792FD0300BB61BB699B78D4
:10290000002B01D1002375E0BB699A787B68110028
:102910001800FFF783FD03007B617B691B78FA1CBD
:1029200012789A4204D1BB695A787B691A7035E0F3
:102930001F23FB187A6912781A701E23FB180022D5
:102940001A701F23FB181A787B6811001800FFF714
:1029500065FD03003B613B695B78FA1C12789A4283
:1029600008D1BB695A783B695A701E23FB180122B3
:102970001A7008E01F217B183A6952781A707B1888
:102980001B78002BDDD11E23FB181B78002B05D1F3
:102990001A4B1B4A1B48672100F01AF9BB69002239
:1029A0009A70BB699A78BB695A700F257C19FB1C19
:1029B00019787B6801221800FFF7D0FE030023700E
:1029C0007B685B7B7A1912789A4205D10E4B0C4AD0
:1029D0000C486D2100F0FCF87B68597B0F23FB1835
:1029E0001A787B681800FFF7A5FD03001A007B68C2
:1029F0005A7301231800BD4608B0B0BD48C9001085
:102A0000CCC90010A0C8001050C9001080B500AF9C
:102A100000BEC046BD4680BD80B584B000AF7860C2
:102A2000074BFB607B68BB60FB688022920113430D
:102A3000BA681A60C046C046BD4604B080BDC046F4
:102A400000C0004080B584B000AF78600B4BFB60E5
:102A50007B68BB60FB68C02292011343BA681A60AE
:102A6000C04600E0C046054B9B68DB437A681340D4
:102A7000F8D1C046C046BD4604B080BD00C000408D
:102A800080B586B000AF3B4B1800FFF7C5FF3A4B4F
:102A90001800FFF7D7FF394B7B6105E07B691B68A6
:102AA00098477B6904337B617A69354B9A42F5D349
:102AB00000F028FA334B1800FFF7C4FF324A4023D6
:102AC0009367314A5367304A13672F4AD3662F4BB7
:102AD0003B6120E03B691B68002B13D03B691B68FE
:102AE000012B05D02A4B2B4A2B48832100F070F88C
:102AF0003B697B607B681800FFF74AFC7B68083302
:102B00003B6108E03B69BB60BB681800FFF729FC2C
:102B1000BB6808333B613A69204B9A42DAD3204BB9
:102B20009B681A001F4B18001100C0231A0003F005
:102B3000C1FC1B4B1B4A9A60FDF795FB031E00D09E
:102B400000BEFDF787FE00F08DFEFEF73FFA164B44
:102B5000FB6005E0FB681B689847FB680433FB607B
:102B6000FA68124B9A42F5D3C046C046BD4606B03D
:102B700080BDC046BFCDFBFEFE7F3C0008080020A4
:102B800018080020FFFFFF0100F0014000080020AE
:102B9000E4C90010DCCA001004CA001008080020B4
:102BA00000ED00E0000000201808002020080020B0
:102BB00080B582B000AF7860FFF728FFFCE780B5F2
:102BC00082B000AF78607B681800FFF7F1FF00006B
:102BD000B0B586B002AFF860B9607A603B607B68E0
:102BE000002B01D00A4B00E00A4B7A68002A01D082
:102BF0007A6800E0074ABD68FC68396806480192B7
:102C000000932B00220003F09BFF0120FFF7D0FF71
:102C100068CA001078CA00107CCA00100FB480B5D2
:102C200082B000AF0B4B180003F07CFE3B69002B19
:102C30000CD01423FB187B607A683B6911001800E4
:102C400003F04CFF044B180003F06CFE0120FFF76B
:102C5000AFFFC046BCCA0010CCCA001080B582B01D
:102C600000AF0200FB1D1A70FB1D1B78052B03D063
:102C7000FB1D1B78042B01D1012300E000231A1C4B
:102C800001231340DBB21800BD4602B080BD000036
:102C9000F0B5A3B000AF3963FA62BB620F232822FC
:102CA0009B18DA19031C1370BA6A982308215B1861
:102CB000DB191B689A4205D28D4B8E4A8E482D2116
:102CC000FFF786FF982308229B18DB191A68BB6A56
:102CD0009A4201D9002307E1BB6A3B6200237B6271
:102CE0003A6A7B6A1100090EF96113001B02BB618D
:102CF000982308229B18DB191B683B6100237B612A
:102D00003A697B69B869F96902F0B2FC02000B000C
:102D1000130084203A1813600F2328229B18DB1914
:102D20001A7813005B009B189B00744A9446634416
:102D300080217A1813607B181B685B683A18126848
:102D40009A4204D97B181B683A1812685A600F23FC
:102D500028229B18DB191B781800FFF77FFF031E42
:102D600019D03B6B012B16D18023FB181B68BB6766
:102D700003237B67BB6FC022920113437A6F1A60F3
:102D8000C04600E0C0468023FB181B689B680122F8
:102D90001340F7D029E08023FB181B683B67802392
:102DA0001B01FB663B6FC02292011343FA6E1A604F
:102DB000C0460F2128268B19DB191A78504B920038
:102DC000D358002B11D04E4B58698B19DB191A7848
:102DD0004B4B9200D358190002F008FC030001335A
:102DE000FB67FB6F013BFDD1FB678026BB191A68AF
:102DF000FB6A5B01BA667B66E0233B66BB6E1A68C2
:102E00007B6E53403A6E1340BA6EFA65BB65FB6D3C
:102E1000802252011343BA6D1A60C046C0460F2388
:102E200028229B18DB191B781800FFF717FF031ED9
:102E300023D0BB191B687B653B6B3B650323FB649D
:102E40007B6D1A683B6D5340FA6C13407A6DBA641F
:102E50007B64BB6C8022520113437A6C1A60C046BB
:102E6000C04600E0C0468023FB181B689B68012118
:102E70003A6B91400A001340F4D080217B181B6804
:102E80003B6480231B01FB633B6C80229201134354
:102E9000FA6B1A60C0467B181B6884203A181268C7
:102EA0005A60BB6ABB600023FB60BA68FB68110014
:102EB0000D0E13001C023B181B683B6000237B6057
:102EC0003A687B682000290002F0D2FB02000B0068
:102ED000100019000F2328229B18DB191A78010013
:102EE000074B9200D15001231800BD4623B0F0BD1E
:102EF000ECCA00100CCC001000CB00100080004089
:102F0000900E002080B588B002AF0C2000F0B8FD14
:102F1000FDF792FC031E11D000237B6107E03F4BBD
:102F20007A6992003E49D1507B6901337B617B69AC
:102F3000092BF4D9394B3B4A5A626CE03A4B0022D8
:102F40009A6700F06FFE394B3B610123FB603B69E0
:102F5000C02292011343FA681A60C04600E0C046DE
:102F6000314B5B6C012BFAD1314BBB6003237B608F
:102F7000BB68C022920113437A681A60C04600E021
:102F8000C046294B9B6B012BFAD12A4A2A480223BF
:102F900000930623012100F0B7FC284A28480223A9
:102FA00000930523012100F0AFFC264A254B009336
:102FB0001300002202210420FFF76AFE224A224B5E
:102FC00000931300002201210520FFF761FE144A3F
:102FD000134B00931300002200210720FFF758FE37
:102FE0000F4A0F4B00931300002200210820FFF727
:102FF0004FFE0B4A0B4B00931300002200210920C7
:10300000FFF746FE104A104B0093130000220021E8
:103010000620FFF73DFEBD4606B080BD900E0020A5
:10302000006CDC021BB70000008000403C800040C8
:1030300030800040002F68590080024000389C1CFE
:1030400000C00240001BB7004059730780B582B032
:1030500000AF0200FB1D1A70FB1D1A78034B920093
:10306000D3581800BD4602B080BDC046900E002067
:1030700080B582B000AF7860C046BD4602B080BD6A
:1030800080B500AF024B9B681800BD4680BDC046AE
:1030900000ED00E080B582B000AF78607B6801226F
:1030A00013431800BD4602B080BD80B582B000AFAA
:1030B00078607B68012293431800BD4602B080BD52
:1030C00080B58AB000AFF860B9607A60FFF7D8FFCA
:1030D0000200FB6810339B00D318BA681A60BFF374
:1030E0005F8FC04609237B617B690E4A9446634427
:1030F0009B007B627B683B627B6AFB61BFF35F8FF7
:10310000C046C046FB6900221A60C0463B6ABB61EC
:10311000BB6983F31088C046C046C046BD460AB0AE
:1031200080BDC0464000003480B582B000AF7860FA
:103130000A00FB1C1A707B681800FFF799FF012238
:103140007B689A40FB1C1B781900100000F01CF8EB
:10315000C046BD4602B080BD80B582B000AF786089
:103160007B681800FFF784FF01227B689A40054BBB
:103170001B6813405A1E9341DBB21800BD4602B0D3
:1031800080BDC04600E100E080B582B000AF78604D
:103190000A00FB1C1A70FB1C1B78002B06D0074B87
:1031A0007A681A60064B7A681A6002E0054B7A6802
:1031B0001A60C046BD4602B080BDC04680E200E055
:1031C00000E100E080E100E080B582B000AF78600F
:1031D0007B681800FFF74CFF044B01217A6891408F
:1031E0000A001A60C046BD4602B080BD00E200E0A1
:1031F00080B582B000AF78607A68054BD21A2F2173
:10320000002391425B41DBB21800BD4602B080BD95
:103210005407002080B582B000AF78607B6818004A
:10322000FFF726FFFFF72CFF02007B6810339B009F
:10323000D3181B681800BD4602B080BD80B58AB0A7
:1032400000AF786039607B681800FFF711FF092331
:10325000BB60BB681D4A944663449B007B627B6AEB
:10326000BB61EFF310837B6172B67B693B61BB6925
:10327000FB60C046FB681B685A425341DBB2002B1F
:10328000F8D1BFF35F8FC046C046C0463B693B6282
:103290007B681800FFF7BEFF0300FB61FA690C4B67
:1032A0009A4209D0FA693B689A4205D0094B0A4A0A
:1032B0000A486E21FFF78CFC3A6A39687B6818006F
:1032C000FFF7FEFEC046BD460AB080BD4000003498
:1032D000CD0100101CCC001008CE001054CC001002
:1032E00080B586B000AF786039607B687B613B68F1
:1032F0003B613A697B69D31A043B5B08FB60FB685E
:10330000DB0A05D0084B094A09488B21FFF760FC0E
:10331000FB689BB25B055B0D9BB2064A13439BB2F5
:103320001800BD4606B080BDB4CC001024CE0010FD
:1033300054CC001000E0FFFF80B586B000AF78608D
:1033400039607B687B613B683B613A697B69D31A72
:10335000043B5B08FB60FB68DB0A05D00E4B0F4AA1
:103360000F489321FFF734FCFB68DB0A9BB25B0537
:103370005B0D9BB20B4A13439AB27B681A80FB68C1
:103380009AB27B68023308490A4392B21A80C04657
:10339000BD4606B080BDC046B4CC001030CE001093
:1033A00054CC001000F0FFFF00F8FFFF80B584B0A0
:1033B00000AF78607B681B88DB0A9BB21C2B05D0B2
:1033C0000D4B0E4A0E489921FFF702FC7B681B88C3
:1033D0005B05FB60FB68002B02DA0A4A94466344F3
:1033E0005B15FB60FB6802335B007A68D31818003A
:1033F000BD4604B080BDC046C4CC001048CE00100D
:1034000054CC0010FFFF1F0080B584B000AF78607F
:103410003960084BFB603968FA687B685B1A5B416E
:103420005A43120DFA607B60FB685BB21800BD4620
:1034300004B080BDAAAA000080B582B000AF786059
:10344000054A7B6811001800FFF7DEFF0300180033
:10345000BD4602B080BDC0465407002090B593B071
:1034600000AF786039600923FB60FB68864A9446A8
:1034700063449B00BB63BB6BFB61EFF31083BB61D9
:1034800072B6BB697B61FB693B61C0463B691B68E7
:103490005A425341DBB2002BF8D1BFF35F8FC046D5
:1034A000C046C0467B697B63FFF7EAFD02007B688C
:1034B00010339B00D3181B687B647A6C734B9A4261
:1034C00000D1D5E07A6C3B689A4200D1D0E07B6CA9
:1034D0001800FFF78DFE031E00D1CBE03323FC184C
:1034E0007B681800FFF738FE030023707B6800211B
:1034F0001800FFF719FEBFF35F8FC046FCF7B3FE5D
:103500000300FB62FB6A002B0BD07B681033FA6A66
:103510009A4206D05E4B5F4A1E21FF315E48FFF79C
:1035200057FB00233B647B6C1800FFF7BEFD0300D4
:10353000BB62BB6AFB632723FC18FB6B1800FFF719
:103540007BFF0300237011E0FB6B3B64FB6B9B79FB
:103550005BB2002B10DBFB6B9B795BB21A00130094
:103560005B009B189B004D4A9B18FB63FB6B9B68A1
:103570003A689A42E8D100E0C046FB6B9B683A6823
:103580009A4265D126217B18FA6B92791A700A004B
:10359000BB181B787F2B39D8BB1800229A56130012
:1035A0005B009B189B003D4A9B183B623B6A9A68F4
:1035B000FB6B9A603B6ADA79FB6BDA713B6A062235
:1035C0009A56FB6B9A713B6A9B795BB2002B0EDBC0
:1035D000FB6B1C1D3B6A04331800FFF7E7FE03007A
:1035E00019002000FFF77CFE03001A0001E0BD2354
:1035F0001A02FB6B9A802A4B00229A563B6A9A71F8
:10360000274B2622BA1812781A7028E0FB6A002B82
:1036100016D13B6C002B06D03B6CFF229A713B6CA1
:10362000204A9A8001E0194B7B641D4B00229A5678
:10363000FB6B9A711A4B2722BA1812781A700EE097
:10364000FB6B0433184A11001800FFF775FE06E003
:10365000164B104AA92149000F48FFF7B9FA332346
:10366000FB181A787B6811001800FFF75DFD01E078
:10367000064B7B647A6B796C7B681800FFF720FD42
:10368000C046BD4613B090BD40000034CD010010CF
:10369000A0CD001058CE001054CC001054070020CC
:1036A0009515002000BDFFFF8E070020C4CD00103F
:1036B00090B593B000AF78607B681800FFF7EAFC24
:1036C0000300FB63FB6B1800FFF792FD031E06D19E
:1036D0005A4B5B4A7821FF315A48FFF779FAFCF7D9
:1036E000C2FD0300BB63BB6B002B06D1564B544A93
:1036F000BD2149005348FFF76BFA0923BB61BB6941
:10370000524A944663449B007B637B6BBB62EFF33E
:1037100010837B6272B67B6A3B62BB6AFB61C04608
:10372000FB691B685A425341DBB2002BF8D1BFF34F
:103730005F8FC046C046C0463B6A3B632F23FC18E0
:103740007B681800FFF778FE03002370FFF798FCF2
:103750000200BB6B9B00D3181B68FA6B9A4208D11E
:10376000FFF78EFC0200BB6B9B00D318384A1A602F
:1037700041E04723FB1800221A7000233B642BE032
:1037800034493A6C13005B009B189B00CB1806333E
:103790001B785BB22F22BA18127852B29A4218D113
:1037A0002C493A6C13005B009B189B00CB18063326
:1037B000FF221A7027493A6C13005B009B189B008C
:1037C000CB180433244A1A804723FB1801221A70AD
:1037D00005E03B6C01333B643B6C032BD0D94723A2
:1037E000FB181B78002B06D11C4B154A8C21FF318E
:1037F0001448FFF7EDF91A4B00229A567B689A712C
:10380000174B2F22BA1812781A707B6B7B613B6BB7
:103810003B617B69FB60BFF35F8FC046C046FB68BE
:1038200000221A60C0463B69BB60BB6883F3108806
:10383000C046C046C046BD4613B090BDCCCD0010BA
:103840006CCE001054CC0010F4CD001040000034B9
:10385000CD0100105407002000BDFFFF00CE001076
:103860009515002080B584B000AF0B4B7B600B4BEF
:10387000FB600023BB6007E0FB681A1DFA607A68F2
:103880001A60BB680133BB60BB68072BF4D9C04624
:10389000C046BD4604B080BD8080808000E400E06A
:1038A00080B584B000AF7860074BFB607B68BB607D
:1038B000FB68802292011343BA681A60C046C04672
:1038C000BD4604B080BDC04600C0004080B584B095
:1038D00000AF78600B4BFB607B68BB60FB68C0226D
:1038E00092011343BA681A60C04600E0C046054B17
:1038F0009B68DB437A681340F8D1C046C046BD469A
:1039000004B080BD00C0004080B58EB000AFF8604C
:10391000B9607A603B60B9680C2001F067FE030073
:103920007B63796B0A005201521A93019B1ADB00E8
:103930005B189B011900786801F058FE03003B6397
:103940003B6B0F2B04D93A6BA0235B009A4205D93D
:10395000444B454A45481621FFF73AF93B68002B8E
:1039600008D03B68072B05D83B6C002B02D03B6C82
:10397000072B05D93E4B3C4A3C481921FFF728F953
:103980003A6C3B689A4205D93A4B374A37481F216F
:10399000FFF71EF97B681B097A6B9A4205D9364BF3
:1039A000314A32482221FFF713F93B681A043B6C75
:1039B0001B031343FB62FB681B68002B12DAFB68D6
:1039C0001B683F221340BA689A420BD1FB689B6880
:1039D0001B051B0D3A6B9A4204D1FB68DB68FB6A3E
:1039E000002B3AD0FB68254A934202D180239B01E9
:1039F00001E080235B01BB62BB6A1800FFF750FF48
:103A0000BB6A1800FFF762FFFB68BA681A60FB68C0
:103A10003A6B9A6021237B62FB6804333B627B6ACA
:103A2000FB613B6AC02292011343FA691A60C046E7
:103A300000E0C046FB681B68002BFADAFB68FA6AF4
:103A4000DA60FB680433BB6108237B61BB69C02279
:103A5000920113437A691A6000E0C046BD460EB079
:103A600080BDC04688CE001084CF0010A4CE0010C8
:103A700004CF001050CF001068CF001000C00240EB
:103A800080B582B000AF7860044B7A6880218900ED
:103A90000A43DA62C046BD4602B080BD00800540E0
:103AA00080B500AF034A044B1B685360C046BD4657
:103AB00080BDC046008005402813002080B590B02E
:103AC00000AF78600A00FB1C1A70344B3B63802304
:103AD000DB05FB623B6BC02292011343FA6A1A605A
:103AE000C0462F4BBB632F4B7B63BB6B8022920185
:103AF00013437A6B1A60C046E023DB04FB63FB1CB4
:103B00001B78002B0AD0254BBB62FB6B7B62BB6A28
:103B10008022920113437A6A1A600AE01F4B3B62CB
:103B2000FB6BFB613B6AC02292011343FA691A6086
:103B3000C0467B68002B0BD1184BBB6180231B0652
:103B40007B61BB698022920113437A691A6020E08D
:103B50007A6813005B019B1A9B009B181B011A00DB
:103B6000114B1A60104B1A6880235B049A4202D3EF
:103B70000D4B0E4A1A60FFF793FF084B3B61802301
:103B8000DB05FB603B69802292011343FA681A60EF
:103B9000C046C046BD4610B080BDC046008005404E
:103BA00008000140FCFF010028130020FFFFFF0078
:103BB00080B586B000AFF860B9607A60164B7B6163
:103BC0008023DB053B617B69C022920113433A6984
:103BD0001A60C046FB68002B12D0FB680122134319
:103BE000FB600D4B0D4ADA610B4BFA680C494A40F9
:103BF0001A62094BBA685A62074BFA689A6202E085
:103C0000054B0022DA617B6800211800FFF756FFA0
:103C1000C046BD4606B080BD00800540D3C007B099
:103C20002D3FF84F80B582B000AF0E4BAA22120193
:103C30001A600C4B2F22DA600A4B7B600A4B3B6008
:103C40007B688022920113433A681A60C046C046DE
:103C5000044B5B68002BFBDAC046C046BD4602B091
:103C600080BDC0460040024000B0FA0080B584B07C
:103C700000AFB9607A603B600F23FB18021C1A701A
:103C8000C046BD4604B080BD80B584B000AFB96009
:103C90007A603B600F217B18021C1A7008007B18A9
:103CA0001B78002B07D0BB681A68BB6859683B18A3
:103CB0001B7818009047C046BD4604B080BD80B553
:103CC00084B000AF786039607B68FB6002E0FB681D
:103CD0000133FB60FB681B78002B04D03B685A1E45
:103CE0003A60002BF3D1FA687B68D31A1800BD46FE
:103CF00004B080BD80B582B000AF0200FB1D1A7019
:103D0000FB1D1B782F2B05D9FB1D1B78392B01D8E8
:103D1000012300E000231A1C01231340DBB218002A
:103D2000BD4602B080BD80B584B000AF786000238E
:103D3000FB600EE0FA6813009B009B185B00180004
:103D40007B681B68591C7A6811601B78C318303B6C
:103D5000FB607B681B681B781800FFF7CBFF031E16
:103D6000E8D1FB681800BD4604B080BD90B587B0AF
:103D700000AFF860B9607A603B607B683B617B6B49
:103D80000222134024D17B6B0122134020D1FB6A15
:103D90007B610AE07A68531C7B603B68B968FC6809
:103DA0002020A0477B6901337B617A693B6B9A4293
:103DB000F0D30DE0FB6A013BFB62BA6AFB6AD318E1
:103DC00018787A68531C7B603B68B968FC68A04728
:103DD000FB6A002BEED17B6B022213400ED007E072
:103DE0007A68531C7B603B68B968FC682020A04758
:103DF0007A683B69D31A3A6B9A42F1D87B6818000B
:103E0000BD4607B090BD90B589B004AFF860B96009
:103E10007A603B60BB6B0222134034D17B6B002B7A
:103E200017D0BB6B0122134013D02823FB181B783B
:103E3000002B03D1BB6B0C2213400AD07B6B013BE0
:103E40007B6306E07B6A5A1C7A623A6AD318302296
:103E50001A707A6A3B6B9A420AD27B6A1F2BF1D99D
:103E600006E07B6A5A1C7A623A6AD31830221A70CA
:103E7000BB6B0122134006D07A6A7B6B9A4202D256
:103E80007B6A1F2BEDD9BB6B1022134056D0BA6B47
:103E90008023DB00134016D17B6A002B13D07A6A93
:103EA0003B6B9A4203D07A6A7B6B9A420BD17B6A56
:103EB000013B7B627B6A002B05D0FB6A102B02D191
:103EC0007B6A013B7B62FB6A102B0ED1BB6B20220D
:103ED00013400AD17B6A1F2B07D87B6A5A1C7A626F
:103EE0003A6AD31878221A701EE0FB6A102B0ED1A2
:103EF000BB6B202213400AD07B6A1F2B07D87B6A3A
:103F00005A1C7A623A6AD31858221A700CE0FB6A7B
:103F1000022B09D17B6A1F2B06D87B6A5A1C7A6256
:103F20003A6AD31862221A707B6A1F2B06D87B6A02
:103F30005A1C7A623A6AD31830221A707B6A1F2B95
:103F400023D82823FB181B78002B07D07B6A5A1C28
:103F50007A623A6AD3182D221A7016E0BB6B0422DB
:103F6000134007D07B6A5A1C7A623A6AD3182B2214
:103F70001A700AE0BB6B0822134006D07B6A5A1CF9
:103F80007A623A6AD31820221A703C687A68B96853
:103F9000F868BB6B03937B6B02937B6A01933B6A6C
:103FA00000932300FFF7E2FE03001800BD4605B0B2
:103FB00090BD90B597B008AFF860B9607A603B608B
:103FC00000237B63BB6C002B03D1FB6D102293435A
:103FD000FB65FA6D8023DB00134002D0BB6C002B25
:103FE00033D0BB6C396D180001F000FB0B001A00D8
:103FF00033217B181A700A00BB181B78092B04D8D0
:10400000BB181B783033DAB20DE0FB6D2022134071
:1040100001D0412300E061233322BA1812789B18A3
:10402000DBB20A3BDAB27B6B591C79631021791839
:10403000CA54396DB86C01F0D9FA0300BB64BB6C8B
:10404000002B02D07B6B1F2BCBD93C687A68B968F8
:10405000F868FB6D0693BB6D05937B6D04933B6D18
:1040600003934C23FB181B7802937B6B0193102363
:10407000FB1800932300FFF7C6FE03001800BD469F
:104080000FB090BDB0B596B008AFF860B9607A6077
:104090003B6000237B63BB6CFA6C134303D1BB6EA4
:1040A00010229343BB66BA6E8023DB00134003D01B
:1040B000BB6CFA6C13433AD0B86CF96CBA6DFB6DFB
:1040C00001F0D6FA1000190033243B19021C1A70B3
:1040D0002200BB181B78092B04D8BB181B7830337F
:1040E000DAB20DE0BB6E2022134001D0412300E084
:1040F00061233322BA1812789B18DBB20A3BDAB27A
:104100007B6B591C796310217918CA54BA6DFB6D09
:10411000B86CF96C01F0ACFA02000B00BA64FB64F5
:10412000BB6CFA6C134302D07B6B1F2BC4D9BB6DE5
:104130003D687C68B968F868BA6E06927A6E059236
:104140003A6E049203935023FB181B7802937B6B07
:1041500001931023FB1800932B002200FFF753FE5E
:1041600003001800BD460EB0B0BD0000F0B59DB014
:1041700006AFF860B9607A603B6000237B6500227F
:104180000023BA63FB633A6F7B6F386F796F01F07E
:10419000F6FC031E12D03C687A68B968F868802380
:1041A000FB181B680393FB6F029303230193C54B1A
:1041B00000932300FFF7DAFD03001DE201225242C3
:1041C000C14B386F796F01F0C7FC031E12D03C68F9
:1041D0007A68B968F8688023FB181B680393FB6F43
:1041E000029304230193B94B00932300FFF7BEFD14
:1041F000030001E201225242B54B386F796F01F0A2
:10420000B9FC031E24D08023FB181B680422134032
:1042100001D0B04B00E0B04B8022BA1812680421E4
:104220000A4001D0042200E003223E687D68BC6899
:10423000F8688021791809680391F96F0291019259
:10424000009333002A002100FFF790FD0300D3E123
:104250000022A24B386F796F01F08CFC031E07D14E
:1042600000229F4B386F796F01F076FC031E15D04A
:104270003D687C68B968F8688023FB181B68049364
:10428000FB6F0393BB6F02933A6F7B6F00920193B6
:104290002B00220000F0B4F90300ADE153243B19D8
:1042A00000221A7000220023386F796F01F054FC4D
:1042B000031E0CD03B1901221A703A6F7B6F00204D
:1042C000002101F0D6FB02000B003A677B678023D8
:1042D000FB181A688023DB0013400CD10623BB6750
:1042E00009E07B6D5A1C7A651022BA183021D1542E
:1042F000BB6F013BBB677B6D1F2B02D8BB6F092BCC
:10430000EFD8386F796F01F065FC0300FB64F86C3F
:1043100001F048FC02000B00386F796F01F0A9FB37
:1043200002000B00100019006E4ABB6FDB00D318AF
:104330001A685B6801F0CDFB02000B003A637B63F7
:10434000386B796B01F06AFC0300BB64B86C01F058
:1043500025FC02000B00386B796B01F08AFB020030
:104360000B00BA63FB6300225F4BB86BF96B01F083
:1043700001FC031E15D0BB6C0133BB64B86C01F0AB
:104380000DFC584ABB6FDB00D3181A685B6801F05C
:10439000E9FB031E17D00023BB64FB6C0133FB64F5
:1043A00011E00022504BB86BF96B01F0D5FB031EF6
:1043B00009D1BB6C002B03D0BB6C0122134002D08F
:1043C000BB6C0133BB64BB6F002B3BD1F86C01F0BD
:1043D000E9FB02000B00386F796F01F04AFB020025
:1043E0000B00BA63FB6301231C1C00223E4BB86B1D
:1043F000F96B01F0B1FB031E01D100231C1CE3B2D9
:1044000001225340DBB2002B00D188E001231C1CA9
:104410000022354BB86BF96B01F0ACFB031E01D1E8
:1044200000231C1CE3B201225340DBB2002B00D15D
:1044300075E0FB6C0122134000D170E0FB6C01338E
:10444000FB646CE0BB6F7B641BE07B6C013B7B64BB
:10445000BB6C0A21180001F0C9F80B00DAB27B6DC1
:10446000591C79653032D1B21022BA18D154BB6CC4
:104470000A21180001F0BAF80300BB64BB6C002BE2
:1044800003D07B6D1F2BE0D908E0C04606E07B6DB2
:104490005A1C7A651022BA183021D1547B6D1F2B1B
:1044A00004D87B6C5A1E7A64002BF0D17B6D1F2BD5
:1044B00035D87B6D5A1C7A651022BA182E21D1543A
:1044C0002DE0C04690CF0010FFFFEFFF94CF00100B
:1044D000FFFFEF7F9CCF0010A4CF001065CDCD4132
:1044E00065CDCDC148D100100000E03FFB6C0A2132
:1044F000180001F053F80B00DAB27B6D591C796596
:104500003032D1B21022BA18D154FB6C0A211800F3
:1045100001F044F80300FB64FB6C002B03D07B6DBF
:104520001F2BE3D900E0C04680217B181B680222C4
:10453000134023D17B181B68012213401ED0FB6F50
:10454000002B14D05323FB181B78002B04D17B18AD
:104550001B680C2213400AD0FB6F013BFB6706E08F
:104560007B6D5A1C7A651022BA183021D1547A6DAD
:10457000FB6F9A4202D27B6D1F2BF1D97B6D1F2BF3
:1045800027D85323FB181B78002B07D07B6D5A1CB0
:104590007A651022BA182D21D1541AE08023FB1815
:1045A0001B680422134007D07B6D5A1C7A651022C9
:1045B000BA182B21D1540CE08023FB181B68082269
:1045C000134006D07B6D5A1C7A651022BA18202140
:1045D000D1543C687A68B968F8688023FB181B6876
:1045E0000393FB6F02937B6D01931023FB180093E1
:1045F0002300FFF7BBFB03001800BD4617B0F0BD5A
:10460000F0B5A7B006AF78643964FA63BB63982647
:10461000BB191A685B68B9190868496801F0AFFAF4
:10462000031E13D101225242D94BB91908684968B7
:1046300001F0A0FA031E09D101225242D54BB9194B
:104640000868496801F088FA031E1BD0BD6BFC6B3B
:10465000396C786CA823FB181B680493A423FB18FF
:104660001B680393A023FB181B6802939823FB1875
:104670001A685B68009201932B002200FFF776FD19
:10468000030081E23B2338229B18DE190123FB73D0
:1046900000220023982179180868496801F05CFA23
:1046A000031E01D10023FB73FB7B33703B233822B5
:1046B0009B18DB191B78002B0FD098217B181B68E7
:1046C0003B609C23FB181A6880231B0653407B60C9
:1046D0003A687B6879180A604B60A823FB181A684F
:1046E0008023DB00134003D10623A022BA181360F5
:1046F0009826BB191A685B68BA64FB64BA6CFB6CD9
:104700001100194300D108E1BA6CFB6C1B0DBB62B0
:104710000023FB62BB6A5B055B0D9F4A94466344C2
:10472000FB66BA6CFB6C00211000884304001B037D
:104730001D0B002323433B62984B2B437B623B6A58
:104740007C6ABB64FC64F86E01F02CFA944A954BC9
:1047500001F0BFF902000B0010001900924A934BC0
:1047600001F090F902000B0014001D00B86CF96C08
:1047700000228F4B01F07DF902000B0010001900A0
:104780008C4A8D4B01F0A5F902000B002000290096
:1047900001F078F902000B001000190001F01AFA7C
:1047A0000300FB67F86F01F0FDF9844A844B01F0C8
:1047B00090F902000B00100019000022814B01F05B
:1047C00061F902000B001000190001F003FA030068
:1047D000FB66F86F01F0E6F97B4A7C4B01F079F952
:1047E00002000B0014001D00F86E01F0DBF9784A9E
:1047F000784B01F06EF902000B002000290001F057
:1048000038F902000B003A667B663A6E7B6E386EB2
:10481000796E01F05EF902000B00BA65FB65FB6E74
:104820006D4A94466344BB61DB17FB61BB691B05A2
:104830007B6100233B613B697C69BB64FC64BC6CAD
:10484000FD6C386E796E02000B0001F01BF902005E
:104850000B00BA62FB623A6E7B6E00208021C905B4
:1048600001F007F902000B003A627B6200225B4B09
:10487000B86DF96D01F00FF902000B00100019007E
:104880000022574B01F0FEF802000B00B86DF96DE5
:1048900001F001F902000B00100019000022514B39
:1048A00001F0F0F802000B00B86DF96D01F0F3F8BB
:1048B00002000B00386A796A01F0E4F802000B008C
:1048C000B86AF96A01F0E7F802000B00100019005D
:1048D0000022324B01F0D6F802000B002000290024
:1048E00001F0F7F802000B00BA64FB64BA6CFB6CD1
:1048F000B9190868496801F02FF9031E0FD0FB6F42
:10490000013BFB67B86CF96C0022354B01F0C3F832
:1049100002000B00BA64FB6401E00023FB67FB6F3D
:10492000632B04DCFB6F633301DB042300E005230E
:10493000BB67A823FB181A6880231B01134000D112
:104940007AE0BA6CFB6C1100194312D0264A274B4F
:10495000982439190868496801F004F9031E5AD0EF
:104960000022234B39190868496801F0F5F8031E45
:1049700051D0A0217B181B68FA6F9A423ADA7B1853
:104980001A68FB6FD31A013B7A18136036E0C046F1
:10499000FFFFEF7FFFFFEFFF01FCFFFF0000F03F95
:1049A000FB799F501344D33FB3C8608B288AC63F1E
:1049B0000000F83F61436F63A787D23F71A3790975
:1049C0004F930A400000E03F1655B5BBB16B024063
:1049D000EF39FAFE422EE63FFF03000000002C40B4
:1049E00000002440000018402D431CEBE2361A3F23
:1049F00080842E410023A022BA181360A8217B18BE
:104A00001B688022D20013437A1813600023BB670F
:104A10000023FB6710E0A0217B181B68002B0BD044
:104A2000A823FB181A688023DB00134004D07B18EE
:104A30001B68013B7A181360A422BB181B687B67B4
:104A4000BB181A68BB6F9A4204D97A6FBB6FD31A2E
:104A50007B6701E000237B67A823FB181B68022209
:104A6000134004D0BB6F002B01D000237B67FB6F8A
:104A7000002B0CD0BA6CFB6C982439190868496873
:104A800001F009F802000B0039190A604B60FB6B5A
:104A90007B653B2338229B18DB191B78002B0BD03E
:104AA0009823FB181B683B639C23FB181B68802220
:104AB00012065A407A6305E09823FB185C681B686D
:104AC0003B637C63A823FA181368314A1340BC6B1C
:104AD000FA6B396C786C04937B6F0393A0257D1976
:104AE0002B6802933D6B7E6B009501962300FFF7C8
:104AF0003DFB0300FB63BB6F002B44D0A823FB18D6
:104B00001B682022134001D0452000E06520FA6B8D
:104B1000531CFB63BB6B396C7C6CA047FB6FDA17D3
:104B20009B1853409C46FB6FDB0FDBB2BA6F013A18
:104B3000BD6BFC6B396C786C0526059604920022DF
:104B400003920A2202920193634600932B002200F3
:104B5000FFF72FFA0300FB63A823FB181B68022250
:104B6000134010D007E0FA6B531CFB63BB6B396C2E
:104B70007C6C2020A047FA6B7B6DD31AA422BA1854
:104B800012689A42EFD8FB6B1800BD4621B0F0BD09
:104B9000FFF7FFFFF0B5C64600B5A8B00AAFF86250
:104BA000B9627A623B6200237B66BB6A002B01D04C
:104BB00000F054FCAD4BFB6200F050FC3B6A1B78EC
:104BC000252B0DD03B6A18787A6E531C7B667B6A66
:104BD000B96AFC6AA0473B6A01333B6200F03EFCC5
:104BE0003B6A01333B6200237B673B6A1B78203BB7
:104BF000102B36D89A009E4BD3181B689F467B6FAC
:104C0000012213437B673B6A01333B620123BB668E
:104C10002AE07B6F022213437B673B6A01333B62CE
:104C20000123BB6620E07B6F042213437B673B6A52
:104C300001333B620123BB6616E07B6F08221343FE
:104C40007B673B6A01333B620123BB660CE07B6FF1
:104C5000102213437B673B6A01333B620123BB662F
:104C600002E00023BB66C046BB6E002BBDD1002313
:104C70003B673B6A1B781800FFF73CF8031E07D020
:104C80002023FB181800FFF74EF803003B671CE0D9
:104C90003B6A1B782A2B18D19023FB181B681A1D1E
:104CA000902179180A601B683B653B6D002B07DA81
:104CB0007B6F022213437B673B6D5B423B6701E0E6
:104CC0003B6D3B673B6A01333B620023FB663B6AFB
:104CD0001B782E2B2BD17B6F8022D20013437B6756
:104CE0003B6A01333B623B6A1B781800FFF702F80E
:104CF000031E07D02023FB181800FFF714F8030049
:104D0000FB6614E03B6A1B782A2B10D19023FB181A
:104D10001B681A1D902179180A601B68FB64FB6CE4
:104D2000002B00DA0023FB663B6A01333B623B6ADF
:104D30001B78683B122B47D89A004E4BD3181B6840
:104D40009F467B6F8022520013437B673B6A01338F
:104D50003B623B6A1B786C2B38D17B6F80229200C0
:104D600013437B673B6A01333B622FE07B6F8022FA
:104D700013437B673B6A01333B623B6A1B78682BBA
:104D800026D17B6F402213437B673B6A01333B6232
:104D90001EE07B6F8022520013437B673B6A013326
:104DA0003B6216E07B6F8022920013437B673B6A75
:104DB00001333B620DE07B6F8022520013437B671F
:104DC0003B6A01333B6204E0C04602E0C04600E0BB
:104DD000C0463B6A1B78672B28DC252B1DDA30E3A5
:104DE000693B01229A401300234A1A40511E8A410E
:104DF000D2B2002A20D180221A40511E8A41D2B25A
:104E0000002A00D0B8E28022D20013405A1E9341FB
:104E1000DBB2002B00D049E213E3253B422B00D943
:104E20000FE39A00154BD3181B689F46782B00DDC3
:104E300007E3692BD4DA04E33B6A1B78782B03D0B1
:104E40003B6A1B78582B02D110233B661EE03B6A5D
:104E50001B786F2B02D108233B6617E03B6A1B7857
:104E6000622B0DD102233B6610E0C0466D3C001062
:104E7000A8CF0010ECCF00104190000038D00010F7
:104E80000A233B667B6F102293437B673B6A1B7848
:104E9000582B03D17B6F202213437B673B6A1B781F
:104EA000692B07D03B6A1B78642B03D07B6F0C22E5
:104EB00093437B677A6F8023DB00134003D07B6FC3
:104EC000012293437B673B6A1B78692B04D03B6AC2
:104ED0001B78642B00D0B2E07A6F80239B001340D4
:104EE00040D09023FB181B680733072293431A0016
:104EF0000832902179180A601A685B683A637B630C
:104F00003A6B7B6B002B05DA00200021801A994157
:104F100002000B00100019007B6BDB0F3B600023CD
:104F20007B603A783B6EBB610023FB617B6A9C46E9
:104F30007E6EBD6AFB6A98467B6F08933B6F079352
:104F4000FB6E0693BB69FC69049305940292009082
:104F500001916346320029004046FFF793F80300B1
:104F60007B66FAE07A6F80235B00134025D09023A4
:104F7000FB181B681A1D902179180A601B68FB63D7
:104F8000FB6BDA179B1853401E00FB6BDB0FDAB28A
:104F90007D6A7C6EB96AF86A7B6F05933B6F0493F8
:104FA000FB6E03933B6E0293019200962B0022004E
:104FB000FEF7FFFF03007B66CFE07B6F40221340CC
:104FC00009D09023FB181B681A1D902179180A60DC
:104FD0001B68DBB215E07B6F8022134009D0902361
:104FE000FB181B681A1D902179180A601B681BB2F8
:104FF00007E09023FB181B681A1D902179180A609E
:105000001B683B643B6CDA179B1853401E003B6CDB
:10501000DB0FDAB27D6A7C6EB96AF86A7B6F059342
:105020003B6F0493FB6E03933B6E029301920096D9
:105030002B002200FEF7BDFF03007B668DE07A6F38
:1050400080239B0013402BD09023FB181B68073351
:10505000072293431A000832902179180A601868D1
:1050600059683B6E3B6100237B617E6A7A6EBD6A44
:10507000FB6A9C467B6F08933B6F0793FB6E06931E
:105080003B697C690493059400230293009001918D
:10509000330029006046FEF7F5FF03007B665CE005
:1050A0007A6F80235B0013401DD09023FB181B6890
:1050B0001A1D902179180A601A687D6A7C6EB96A97
:1050C000F86A7B6F05933B6F0493FB6E03933B6E13
:1050D00002930023019300922B002200FEF769FF48
:1050E00003007B6639E07B6F4022134009D0902398
:1050F000FB181B681A1D902179180A601B68DBB227
:1051000015E07B6F8022134009D09023FB181B68A9
:105110001A1D902179180A601B689BB207E0902342
:10512000FB181B681A1D902179180A601B687B64A4
:105130007C6A7A6EB96AF86A7B6F05933B6F049359
:10514000FB6E03933B6E0293002301937B6C0093F1
:105150002300FEF72EFF03007B663B6A01333B62B0
:105160007CE13B6A1B78462B03D17B6F20221343E3
:105170007B679023FB181B680733072293431A00B1
:105180000832902179180A60186859687E6A7A6E28
:10519000BD6AFC6A7B6F04933B6F0393FB6E0293C3
:1051A00000900191330029002000FEF7DFFF03008B
:1051B0007B663B6A01333B6250E13B6A1B78672B9D
:1051C00003D03B6A1B78472B04D17B6F80221201EE
:1051D00013437B673B6A1B78452B03D03B6A1B78E4
:1051E000472B03D17B6F202213437B679023FB184F
:1051F0001B680733072293431A000832902179185D
:105200000A60186859687E6A7A6EBD6AFC6A7B6FAC
:1052100004933B6F0393FB6E029300900191330064
:1052200029002000FFF7ECF903007B663B6A01339D
:105230003B6213E10123FB657B6F022213400ED119
:1052400007E07A6E531C7B667B6AB96AFC6A202091
:10525000A047FB6D5A1CFA653A6F9A42F1D8902329
:10526000FB181B681A1D902179180A601B68D8B2B8
:105270007A6E531C7B667B6AB96AFC6AA0477B6FB7
:10528000022213400ED007E07A6E531C7B667B6AC5
:10529000B96AFC6A2020A047FB6D5A1CFA653A6F78
:1052A0009A42F1D83B6A01333B62D7E09023FB1866
:1052B0001B681A1D902179180A601B68BB65FB6E7C
:1052C000002B01D0FB6E01E001235B42BA6D190097
:1052D0001000FEF7F4FC03007B657A6F8023DB008F
:1052E000134005D07A6DFB6E934200D913007B65A5
:1052F0007B6F022213401AD107E07A6E531C7B6643
:105300007B6AB96AFC6A2020A0477B6D5A1C7A65CB
:105310003A6F9A42F1D80AE0BB6D5A1CBA65187808
:105320007A6E531C7B667B6AB96AFC6AA047BB6DC8
:105330001B78002B09D07A6F8023DB001340EBD061
:10534000FB6E5A1EFA66002BE6D17B6F02221340D9
:105350000ED007E07A6E531C7B667B6AB96AFC6AE2
:105360002020A0477B6D5A1C7A653A6F9A42F1D88B
:105370003B6A01333B6271E008233B677B6F21226C
:1053800013437B672B212023CB18DB1900221A70D3
:105390002023CB18DB191B78002B25D09023FB187A
:1053A0001B681A1D902179180A601B68BB600023D6
:1053B000FB607D6A7C6EB96AF86A7B6F08933B6F0D
:1053C0000793FB6E0693102200230492059300239B
:1053D0000293BA68FB68009201932B002200FEF74B
:1053E00051FE03007B661CE09023FB181B681A1D0E
:1053F000902179180A601B681D007C6A7A6EB96A70
:10540000F86A7B6F05933B6F0493FB6E0393102345
:1054100002930023019300952300FEF7CAFD0300C9
:105420007B663B6A01333B6218E07A6E531C7B66F5
:105430007B6AB96AFC6A2520A0473B6A01333B625C
:105440000CE03B6A18787A6E531C7B667B6AB96AFB
:10545000FC6AA0473B6A01333B62C0463B6A1B784B
:10546000002B01D0FFF7AAFB7A6E7B6A9A4202D327
:105470007B6A5A1E00E07A6E7B6AB96AFC6A002079
:10548000A0477B6E1800BD461EB080BCB846F0BD7C
:1054900090B589B002AFF860B9607A603B601021C6
:1054A0007B18FA681A607B18BA685A607C68012316
:1054B0005A42791805483B6800932300FFF76AFBBE
:1054C00003001800BD4607B090BDC046893C0010DF
:1054D00001480421014B1847A00700203555001052
:1054E00080B586B000AF78607B687B6118231B882D
:1054F0003B6114231B88FB607969FA683B691000E3
:10550000984703001800BD4606B080BD80B584B042
:1055100000AF786018231B88FB6016231B88BB60D4
:105520007968BA68FB681000984703001800BD4608
:1055300004B080BD80B584B000AF786039600F23BF
:10554000FB1801221A700023BB601CE0BB689B00A3
:105550007A68D3181B681800FFF7C2FF0100BB6808
:105560009B007A68D3180A001A60BB689B007A68AF
:10557000D3181B68002B03D10F23FB1800221A70CD
:10558000BB680133BB60BA683B689A42DED30F2325
:10559000FB181B781800BD4604B080BD124A936FFB
:1055A0009B0815D29066D166002905D0FFE7FFE77A
:1055B000FFE7516F106F704704B580210906C217CD
:1055C0005140002800D0C84306F0FEFC002104BD75
:1055D000F0B5146E556E576F166FFFF7E3FF146644
:1055E000556657671667F0BD000000D0114A936FEB
:1055F0009B0813D210665166002905D0FFE7FFE72C
:10560000FFE7516F106F704704B5002801D00020EC
:10561000C04306F0D9FC002104BDC046F0B5146EAD
:10562000556E576F166FFFF7E5FF1466556657679F
:105630001667F0BD000000D094464E4A926F920863
:10564000624601D230E0C046F0B54A4EB56F6D08F3
:10565000FCD3346E756E776F366F00F025F8944684
:10566000444A14665566576716676246F0BDC046E1
:105670009446404A926F9208624601D258E0C04672
:10568000F0B53C4EB56F6D08FCD3346E756E776F18
:10569000366F00F04DF89446364A146655665767E3
:1056A00016676246F0BDC046002B24DB11D00029EE
:1056B0003EDA00B5C943404200D1013100F038F86C
:1056C000C943404200D10131DB43524200D1013392
:1056D00000BD002AEBD1002801D1002905D000200F
:1056E000C90FC90701D1C043410800B506F064FCE9
:1056F0000022002300BD00B500290ADBDB43524233
:1057000000D1013300F014F8C943404200D1013107
:1057100000BDC943404200D10131DB43524200D1B8
:10572000013300F005F8DB43524200D1013300BDE4
:10573000002923D1002B18D1002A0CD0BC460D4FD4
:1057400038667A6600210023FFE7FFE7FFE77A6FFC
:10575000386F67467047002801D00748010000B540
:1057600006F02AFC0022002300BD02000B000020EE
:1057700000217047000000D0FFFFFFFF002B00D08A
:10578000BFE0130C28D1002AE7D080B4114F39664E
:105790007A66FFE7FFE730B4040C7B6F396F1B04B8
:1057A00023433B667A66FFE7FFE7FFE7C04684B224
:1057B0007B6F3D6F1B0423433B667A66FFE7FFE781
:1057C000C04600232C042D0C7A6F386F00196941F4
:1057D000B0BC7047000000D0F0B594460025140E10
:1057E00001D112020835140F01D112010435940FB2
:1057F00001D192000235D40F01D152000135D40BF2
:105800000134254F7C66254C3C660E0C93B2FFE7B5
:10581000FFE7FFE73C6F6643360C7703BE467343F2
:10582000DF0B5B04C01AB941130C7343DB18C91AB0
:10583000CE086643360CB64493B273431F0F1B0168
:10584000C01AB941130C73431F0B1B05C01AB94191
:10585000860D8F023E436643360C092D24DB520A27
:105860007243801A7703460A6643360C16235B1B85
:10587000DE40DF40BF1964466643821B7046043534
:1058800006330100D940A840C01900D30131A2421B
:1058900006D20023F0BD0000000000D0FFFFFFFF94
:1058A000121B0130F3D3F1E709277F1BFE4064464A
:1058B000A2B27243801A00D20139220C7243130C37
:1058C0001204821A99410B00704604351337010007
:1058D000F940A840801900D30131002B02D1A24227
:1058E0000AD2F0BD013000D30131121BFAD2013BC4
:1058F000F8D1A24200D2F0BD013000D30131121B19
:10590000F7E7F0B51C0C00D080E00CB400251C0AB1
:1059100004D11B02160E3343120208351C0B04D1AE
:105920001B01160F3343120104359C0B04D19B005D
:10593000960F334392000235DC0B02D192185B4183
:1059400001351C00971864410134464F7C66464C73
:105950003C660E0CFFE7FFE7FFE7C0463C6F66437F
:10596000360C7703BE4697B27743C01B00D201398D
:10597000C01B00D201399FB27743C91BC91B170C4A
:1059800077437E04FF0B801BB941CE086643360C7B
:105990000C2D33DBB644120B1F053A431B0B97B299
:1059A0007743C01B00D201399FB27743C91B170C44
:1059B00077433E043F0C801BB941860D8F023E4366
:1059C000664329277F1BFE400C3D7746AF40BF1939
:1059D00030BCA2B2ABB272437343801A9941220C1D
:1059E0007243130C1204801A994102000B00013714
:1059F000001BA941F9D2781E0021F0BD0C277F1BA6
:105A0000FE4077467F0BAF40FF19E0E700245D1CA6
:105A100007D0144F7D663966FFE7FFE7FFE7FFE732
:105A20003C6F95B29EB265436643401BB141150C75
:105A30001E0C6543664336042F0C3E432D04401B69
:105A4000B141994204D202000B0020000021F0BDB8
:105A500001D19042F7D3801A994101349942F2D38F
:105A6000F6E70000000000D0FFFFFFFF4840414084
:105A7000484018B41B4B5B68FC46019308BD04DF2B
:105A80009F5D001018B4174B1B68FC46019308BDBE
:105A900000DFA95D00109446134A926F920809D264
:105AA000624618B40F4BDB68FC46019308BD0CDF5F
:105AB000616000100C4AF0B5146E556E576F166F8A
:105AC0006246FFF7EEFF084A146655665767166789
:105AD000F0BD18B4034B9B68FC46019308BD08DF7A
